:1000000019C028C027C026C025C024C023C022C0D4
:1000100021C020C01FC01EC01DC01CC01BC01AC0F4
:1000200039C018C017C016C015C014C013C012C004
:1000300011C010C011241FBECFEFD2E0DEBFCDBF74
:1000400021E0A0E0B1E001C01D92A731B207E1F7C5
:100050008CD2C1C4D5CF8B3591058CF48A339105F0
:1000600084F48A3291057CF48D31910574F48731E2
:1000700091056CF421E042975CF420E009C020E295
:1000800007C020E105C028E003C024E001C022E051
:10009000822F08951F920F920FB60F9211242F9363
:1000A0003F934F935F936F937F938F939F93AF9300
:1000B000BF938091140190E0082E892F000C881FB7
:1000C000990B000C881F991F8130910599F480913C
:1000D00015019091160195FD02C020E001C022E0BB
:1000E00091FD246092FD206493FD206825B9216074
:1000F00024B912C18230910581F48091150190914B
:100100001601282F217096FD246082FD206481FD58
:10011000206825B9226024B9FFC00397A1F480911B
:1001200015019091160183FD02C020E001C022E07C
:1001300084FD216099230CF4206485FD206825B995
:10014000246024B9E9C0809115019091160190FDB9
:1001500002C020E001C022E087FD246086FD20640B
:1001600094FD216025B9206824B940911001509177
:10017000110160911201709113014F5F5F4F6F4F3A
:100180007F4F4093100150931101609312017093BF
:100190001301DB01CA01072E7CE0B695A795979560
:1001A00087957A95D1F7702D87709927AA27BB2755
:1001B0000097A105B10561F420910C0130910D016A
:1001C0002115310539F1309316012093150122C014
:1001D00081309105A105B10561F4209108013091AC
:1001E00009012115310531F13093160120931501D4
:1001F00021C082309105A105B10561F42091020171
:10020000309103012115310529F130931601209316
:10021000150120C083309105A105B10559F48091E5
:100220000A0190910B01009719F1909316018093A8
:1002300015011EC084309105A105B10559F48091C6
:10024000060190910701009799F090931601809311
:1002500015010EC00597A105B10551F48091040167
:1002600090910501009721F090931601809315015C
:1002700020910A0130910B0180910C0190910D01A8
:10028000822B932B2091080130910901822B932B13
:100290002091060130910701822B932B20910401BC
:1002A00030910501822B932B2091020130910301A3
:1002B000822B932B2091000130910101822B932BF3
:1002C00095FF05C090930F0180930E0109C09061C6
:1002D00090930F0180930E01909316018093150166
:1002E000032E3DE076956795579547953A95D1F75A
:1002F000302D477055276627772746305105610511
:10030000710551F480910E0190910F01009721F039
:100310009093160180931501809114018F5F809353
:100320001401BF91AF919F918F917F916F915F91D8
:100330004F913F912F910F900FBE0F901F901895E6
:10034000806C80937C0086EC80937A0010927B0016
:10035000EAE7F0E0808184FFFDCFEAE7F0E080810A
:1003600080618083809178009091790008954F9208
:100370005F926F927F928F929F92AF92BF92CF9235
:10038000DF92EF92FF921F93CF93DF93182F4A01D2
:100390005B01C0E0D0E082E0D3DF6C01EE24D7FC4B
:1003A000E094FE2C812FCCDFAA2797FDA095BA2FD1
:1003B000A7019601281B390B4A0B5B0B253631052B
:1003C000410551052CF42196C83E83E0D80719F762
:1003D000A8EEB3E0C8D22B013C01A5019401205C3A
:1003E000344D41405109AAE2B0E0BDD26B017C011D
:1003F0009E01442737FD4095542FC301B20197D287
:10040000C701B60194D2CA01B901DF91CF911F9102
:10041000FF90EF90DF90CF90BF90AF909F908F9024
:100420007F906F905F904F900895CF92DF92EF9200
:10043000FF92CF93DF93C8EED3E0C12CD12C76018D
:1004400081E07EDFAA2797FDA095BA2FC80ED91E9E
:10045000EA1EFB1E82E074DFAA2797FDA095BA2F43
:10046000C81AD90AEA0AFB0A2197209749F7C70157
:10047000B60128EE33E040E050E059D2CA01B9019C
:10048000DF91CF91FF90EF90DF90CF900895CF92C2
:10049000DF92EF92FF92CF93DF93C8EED3E0C12CAF
:1004A000D12C760183E04CDFAA2797FDA095BA2FC7
:1004B000C80ED91EEA1EFB1E82E042DFAA2797FD66
:1004C000A095BA2FC81AD90AEA0AFB0A21972097E1
:1004D00049F7C701B60128EE33E040E050E027D2EB
:1004E000CA01B901DF91CF91FF90EF90DF90CF90DB
:1004F0000895CF92DF92EF92FF92CF93DF93C8EEF1
:10050000D3E0C12CD12C760183E01ADFAA2797FD16
:10051000A095BA2FC80ED91EEA1EFB1E81E010DF7F
:10052000AA2797FDA095BA2FC81AD90AEA0AFB0A8A
:100530002197209749F7C701B60128EE33E040E044
:1005400050E0F5D1CA01B901DF91CF91FF90EF9052
:10055000DF90CF9008959B01AC0160E87FE985EDC5
:1005600090E0E5D12C5727BD08958FEF8AB980E23E
:1005700087B987EC84B981E08BB916BC17BC93E8C6
:1005800094BD85BD80936E0081EC80937C008FEEDE
:1005900080937A0010927B00789418B889E08BB928
:1005A0000F2EF8EE6F2EF02D0F2EF3E07F2EF02D94
:1005B000812C912CA12CB12C0F2EF4E64F2EF02D76
:1005C000512C6894332434F80F2EF7E22F2EF02D9F
:1005D00000E415EA88E28BB980E288B926DF18B812
:1005E00089E08BB922DF21DF6B017C01CB0133DD98
:1005F00090E027E9C216D104E104F10434F09166D9
:1006000090930101809300018BC13BE0C316D1049C
:10061000E104F1040CF080C1916A90930101809390
:1006200000017EC180E08CDEAA2797FDA095BA2F3D
:10063000C80ED91EEA1EFB1E2197209799F740E4A9
:10064000C4164DE0D40643E0E406F10474F480914E
:100650000E0190910F01906A90930F0180930E010B
:100660009093160180931501B5CF51E9C51650ED51
:10067000D50653E0E506F10474F080910E019091E7
:100680000F01906690930F0180930E0190931601D5
:10069000809315019FCF88E28BB980E288B9842DC1
:1006A000952D01970097E9F784E08BB9B701A60172
:1006B00083E05DDE6D3D25E07207810591053CF02C
:1006C00080EC92E690930D0180930C0110C0643F82
:1006D0007140810591053CF480EC92EA90930D0104
:1006E00080930C0104C010920D0110920C0188E25D
:1006F0008BB980E288B9842D952D01970097E9F791
:1007000018B884E28BB9B701A60181E030DE6939FF
:100710004AE37407810591053CF080E893E69093E5
:100720000B0180930A0110C068387341810591055F
:100730002CF010920B0110920A0106C080E893EA97
:1007400090930B0180930A011BB818B8C701B6013A
:1007500002DF832D922D01970097E9F788E18BB98D
:1007600064DE63DE673623E072078105910554F08D
:1007700080910601909107019566909307018093FF
:10078000060122C0623371058105910554F4809100
:1007900006019091070199629093070180930601E9
:1007A00013C0683572408105910554F480910601AB
:1007B00090910701956A909307018093060104C008
:1007C000109207011092060189E08BB960DE5FDEAE
:1007D000673643E07407810591053CF080E494E6B8
:1007E00090930901809308011CC062337105810553
:1007F00091053CF420E438E230930901209308018C
:1008000010C068357240810591053CF440E454EA1B
:10081000509309014093080104C0109209011092FD
:10082000080180E288B984E08BB931DE30DE9B01BB
:10083000AC0188279927DC01821B930BA40BB50B15
:10084000873633E09307A105B1053CF040E854E654
:1008500050930301409302011CC082339105A1050E
:10086000B1053CF480E898E2909303018093020183
:1008700010C088359240A105B1053CF440E854EA27
:10088000509303014093020104C01092030110929F
:10089000020180E288B980E18BB92BDE2ADE9B0160
:1008A000AC0188279927DC01821B930BA40BB50BA5
:1008B000873633E09307A105B1053CF040E455E6E7
:1008C00050930501409304011AC082339105A1059C
:1008D000B1053CF480E499E2909305018093040112
:1008E0000EC088359240A105B1052CF41093050186
:1008F0000093040104C0109205011092040117BC7A
:1009000080910E0190910F0195FD64CE90619093BE
:100910000F0180930E015ECE909301018093000140
:10092000C62DD72DC82CD92CEA2CFB2C7BCE052E1E
:1009300097FB16F400940FD057FD05D01ED007FC8E
:1009400002D046F408C050954095309521953F4F10
:100950004F4F5F4F089590958095709561957F4FAB
:100960008F4F9F4F08952BD0A59F900DB49F900D52
:10097000A49F800D911D11240895A1E21A2EAA1B97
:10098000BB1BFD010DC0AA1FBB1FEE1FFF1FA2173F
:10099000B307E407F50720F0A21BB30BE40BF50B3C
:1009A000661F771F881F991F1A9469F760957095C5
:1009B000809590959B01AC01BD01CF010895A29F48
:1009C000B001B39FC001A39F01D0B29F700D811DE4
:0A09D0001124911D0895F894FFCF43
:00000001FF
