S01E00004C5433303630626F6172645445535470726F6772616D2E737265635D
S113000019C028C027C026C025C024C023C022C0D0
S113001021C020C01FC01EC01DC01CC01BC01AC0F0
S113002039C018C017C016C015C014C013C012C000
S113003011C010C011241FBECFEFD2E0DEBFCDBF70
S113004021E0A0E0B1E001C01D92AB31B207E1F7BD
S1130050A1D2F4C4D5CF8B3591058CF48A339105A4
S113006084F48A3291057CF48D31910574F48731DE
S113007091056CF421E042975CF420E009C020E291
S113008007C020E105C028E003C024E001C022E04D
S1130090822F08951F920F920FB60F9211242F935F
S11300A03F934F935F936F937F938F939F93AF93FC
S11300B0BF938091180190E0082E892F000C881FAF
S11300C0990B000C881F991F8130910599F4809138
S11300D0190190911A0195FD02C020E001C022E0AF
S11300E091FD246092FD206493FD206825B9216070
S11300F024B927C18230910581F48091190190912E
S11301001A01282F217096FD246082FD206481FD50
S1130110206825B9226024B914C10397A1F4809101
S1130120190190911A0183FD02C020E001C022E070
S113013084FD216099230CF4206485FD206825B991
S1130140246024B9FEC08091190190911A0190FD98
S113015002C020E001C022E087FD246086FD206407
S113016094FD216025B9206824B9809114019091EF
S11301701501A0911601B09117010196A11DB11DA1
S11301808093140190931501A0931601B093170165
S1130190409100015091010120910201309103012D
S11301A0242B352B2115310529F030931A01209386
S11301B01901C7C0AC01BD01032E3CE076956795DB
S11301C0579547953A95D1F7302D477055276627AF
S11301D07727411551056105710561F420911001DE
S11301E0309111012115310539F130931A01209311
S11301F0190122C0413051056105710561F4209156
S11302000C0130910D012115310539F130931A019A
S11302102093190122C0423051056105710561F432
S113022020910601309107012115310539F13093F0
S11302301A012093190122C043305105610571054B
S113024061F420910E0130910F012115310531F136
S113025030931A012093190121C0443051056105DE
S1130260710561F420910A0130910B0121153105CA
S1130270A9F030931A012093190110C0453051059B
S11302806105710559F42091080130910901211586
S1130290310521F030931A012093190140910E0188
S11302A050910F012091100130911101242B352B15
S11302B040910C0150910D01242B352B40910A01E2
S11302C050910B01242B352B4091080150910901C9
S11302D0242B352B4091060150910701242B352BFB
S11302E04091040150910501242B352B35FF05C0A5
S11302F0309313012093120109C03061309313012C
S11303002093120130931A0120931901072E7DE0E6
S1130310B695A795979587957A95D1F7702D87709F
S11303209927AA27BB270697A105B10551F4809107
S1130330120190911301009721F090931A01809378
S11303401901809118018F5F80931801BF91AF91BB
S11303509F918F917F916F915F914F913F912F91D9
S11303600F900FBE0F901F901895806C80937C00A7
S113037086EC80937A0010927B00EAE7F0E08081BB
S113038084FFFDCFEAE7F0E0808180618083809183
S113039078009091790008954F925F926F927F92C6
S11303A08F929F92AF92BF92CF92DF92EF92FF9281
S11303B01F93CF93DF93182F4A015B01C0E0D0E075
S11303C082E0D3DF6C01EE24D7FCE094FE2C812F75
S11303D0CCDFAA2797FDA095BA2FA7019601281B69
S11303E0390B4A0B5B0B25363105410551052CF4BD
S11303F02196C83E83E0D80719F7A8EEB3E0E6D209
S11304002B013C01A5019401205C344D414051096C
S1130410AAE2B0E0DBD26B017C019E01442737FDE8
S11304204095542FC301B201B5D2C701B601B2D26F
S1130430CA01B901DF91CF911F91FF90EF90DF9036
S1130440CF90BF90AF909F908F907F906F905F9070
S11304504F900895CF92DF92EF92FF92CF93DF9364
S1130460C8EED3E0C12CD12C760181E07EDFAA272F
S113047097FDA095BA2FC80ED91EEA1EFB1E82E076
S113048074DFAA2797FDA095BA2FC81AD90AEA0AD9
S1130490FB0A2197209749F7C701B60128EE33E0FC
S11304A040E050E077D2CA01B901DF91CF91FF90CB
S11304B0EF90DF90CF900895CF92DF92EF92FF926A
S11304C0CF93DF93C8EED3E0C12CD12C760183E027
S11304D04CDFAA2797FDA095BA2FC80ED91EEA1E95
S11304E0FB1E82E042DFAA2797FDA095BA2FC81A07
S11304F0D90AEA0AFB0A2197209749F7C701B601EE
S113050028EE33E040E050E045D2CA01B901DF9162
S1130510CF91FF90EF90DF90CF900895CF92DF922C
S1130520EF92FF92CF93DF93C8EED3E0C12CD12C8E
S1130530760183E01ADFAA2797FDA095BA2FC80E8B
S1130540D91EEA1EFB1E81E010DFAA2797FDA095A5
S1130550BA2FC81AD90AEA0AFB0A2197209749F741
S1130560C701B60128EE33E040E050E013D2CA01DF
S1130570B901DF91CF91FF90EF90DF90CF90089574
S11305809B01AC0160E87FE985ED90E003D22C5734
S113059027BD08958FEF8AB980E287B987EC84B9C3
S11305A081E08BB916BC17BC93E894BD85BD8093DC
S11305B06E0081EC80937C008FEE80937A00109221
S11305C07B00789418B889E08BB90F2EF8EE8F2E43
S11305D0F02D0F2EF3E09F2EF02DA12CB12C00E076
S11305E010E00F2EF4E62F2EF02D312C0F2EF0E418
S11305F04F2EF8E25F2EF02D0F2EF0E46F2EF4E66E
S11306007F2EF02D88E28BB980E288B923DF18B8F9
S113061089E08BB91FDF1EDF6B017C01CB011BDD81
S113062090E027E9C216D104E104F10434F09166A4
S11306309093050180930401A6C13BE0C316D10445
S1130640E104F1040CF09BC1916A9093050180933D
S1130650040199C180E089DEAA2797FDA095BA2FED
S1130660C80ED91EEA1EFB1E2197209799F740E475
S1130670C4164DE0D40643E0E406F1045CF480E0E3
S113068090EA909303018093020190931A0180935E
S11306901901B8CF51E9C51650EDD50653E0E5066A
S11306A0F1045CF080E090E69093030180930201F2
S11306B090931A0180931901A5CF1092030110920F
S11306C0020188E28BB980E288B9822D932D0197CB
S11306D00097E9F784E08BB9B701A60183E05CDEFB
S11306E06D3D25E07207810591053CF080EC92E6B2
S11306F0909311018093100110C0643F71408105F3
S113070091053CF480EC92EA9093110180931001DE
S113071004C0109211011092100188E28BB980E29A
S113072088B9822D932D01970097E9F718B884E2D0
S11307308BB9B701A60181E02FDE69394AE374075A
S1130740810591053CF080E893E690930F01809336
S11307500E0110C068387341810591052CF0109288
S11307600F0110920E0106C080E893EA90930F01E6
S113077080930E011BB818B8C701B60101DF80E1F0
S113078097E201970097E9F7C82DD92DCA2CDB2CE5
S1130790E02EF12E80E0E9DDAA2797FDA095BA2F7F
S11307A0C80ED91EEA1EFB1E2197209799F720EB4D
S11307B0C21622EED2062DE0E206F1045CF480E0DB
S11307C090E2909301018093000190931A01809329
S11307D0190104C0109201011092000188E18BB943
S11307E039DE38DE673633E073078105910554F04E
S11307F080910A0190910B01956690930B0180936F
S11308000A0122C0623371058105910554F4809177
S11308100A0190910B01996290930B0180930A0154
S113082013C0683572408105910554F480910A0122
S113083090910B01956A90930B0180930A0104C077
S113084010920B0110920A0189E08BB935DE34DE77
S1130850673653E07507810591052CF070920D0100
S113086060920C011AC062337105810591052CF464
S113087050920D0140920C0110C068357240810500
S113088091053CF440E454EA50930D0140930C016B
S113089004C010920D0110920C0180E288B984E02A
S11308A08BB90ADE09DE9B01AC0188279927DC019C
S11308B0821B930BA40BB50B873633E09307A1057A
S11308C0B1053CF040E854E650930701409306011B
S11308D01CC082339105A105B1053CF480E898E27F
S11308E0909307018093060110C088359240A105BA
S11308F0B1053CF440E854EA5093070140930601E3
S113090004C0109207011092060180E288B980E1C8
S11309108BB904DE03DE9B01AC0188279927DC0137
S1130920821B930BA40BB50B873633E09307A10509
S1130930B1053CF040E455E65093090140930801A9
S11309401CC082339105A105B1053CF480E499E211
S1130950909309018093080110C088359240A10545
S1130960B1053CF440E455EA509309014093080171
S113097004C0109209011092080117BC43CE909351
S1130980050180930401C82DD92DCA2CDB2CE02E3F
S1130990F12E60CE052E97FB16F400940FD057FD70
S11309A005D01ED007FC02D046F408C050954095EF
S11309B0309521953F4F4F4F5F4F08959095809507
S11309C0709561957F4F8F4F9F4F08952BD0A59FB2
S11309D0900DB49F900DA49F800D911D1124089536
S11309E0A1E21A2EAA1BBB1BFD010DC0AA1FBB1F2F
S11309F0EE1FFF1FA217B307E407F50720F0A21BA1
S1130A00B30BE40BF50B661F771F881F991F1A940D
S1130A1069F760957095809590959B01AC01BD0137
S1130A20CF010895A29FB001B39FC001A39F01D03D
S1130A30B29F700D811D1124911D0895F894FFCF6C
S9030000FC
